:100000000C942A000C9447000C9447000C94470071
:100010000C9447000C9447000C94B9010C944700D1
:100020000C9447000C9447000C9447000C94470034
:100030000C9447000C9447000C9447000C94470024
:100040000C9447000C9447000C9447000C94470014
:100050000C94470011241FBECFE5D8E0DEBFCDBF12
:1000600010E0A0E6B0E0EEE2F7E002C005900D92ED
:10007000A237B107D9F710E0A2E7B0E001C01D92A6
:10008000A837B107E1F70E9449000C9495030C943E
:1000900000000E94C80280E060E040E650E00E945C
:1000A000BD0280E06EE04CE650E00E94BD028FB7DA
:1000B00080688FBF0E94260380E06BE00E94AA0246
:1000C0000E9416038A30910538F40E945B028FE685
:1000D00090E00E944802EECF8436910530F40E94F1
:1000E0005B0280E20E941F02E5CF0E945B02E2CF2A
:1000F000683008F070C0843008F06DC0813009F1BC
:10010000813030F08230B1F1833009F064C04BC0EF
:10011000413059F42AB381E090E002C0880F991F62
:100120006A95E2F7282B2ABB08952AB381E090E074
:1001300002C0880F991F6A95E2F7809582238ABBD7
:100140000895413059F427B381E090E002C0880F50
:10015000991F6A95E2F7282B27BB089527B381E002
:1001600090E002C0880F991F6A95E2F7809582237C
:1001700087BB0895413059F424B381E090E002C078
:10018000880F991F6A95E2F7282B24BB089524B3A2
:1001900081E090E002C0880F991F6A95E2F7809590
:1001A000822384BB0895413059F421B381E090E06B
:1001B00002C0880F991F6A95E2F7282B21BB08958A
:1001C00021B381E090E002C0880F991F6A95E2F7A1
:1001D0008095822381BB0895683008F070C0843018
:1001E00008F06DC0813009F1813030F08230B1F11A
:1001F000833009F064C04BC0413059F42BB381E027
:1002000090E002C0880F991F6A95E2F7282B2BBB5C
:1002100008952BB381E090E002C0880F991F6A9582
:10022000E2F7809582238BBB0895413059F428B3BF
:1002300081E090E002C0880F991F6A95E2F7282BB1
:1002400028BB089528B381E090E002C0880F991F71
:100250006A95E2F78095822388BB0895413059F46E
:1002600025B381E090E002C0880F991F6A95E2F7FC
:10027000282B25BB089525B381E090E002C0880FAC
:10028000991F6A95E2F78095822385BB08954130D6
:1002900059F422B381E090E002C0880F991F6A955B
:1002A000E2F7282B22BB089522B381E090E002C040
:1002B000880F991F6A95E2F78095822382BB089583
:1002C0006830D0F48430C0F4813049F0813028F0B7
:1002D000823039F0833081F406C089B305C086B31B
:1002E00003C083B301C080B390E002C095958795A9
:1002F0006A95E2F78170089580E00895843080F473
:10030000813049F0813028F0823039F0833041F477
:1003100006C06ABB089567BB089564BB089561BBBE
:100320000895843080F4813049F0813028F08230A3
:1003300039F0833041F406C06BBB089568BB089563
:1003400065BB089562BB0895843088F4813049F01C
:10035000813028F0823039F0833049F406C089B307
:10036000089586B3089583B3089580B3089580E017
:1003700008951F920F920FB60F9211242F933F935F
:100380004F935F936F937F938F939F93AF93BF939D
:10039000EF93FF93E0917200F0917300309709F0B2
:1003A0000995FF91EF91BF91AF919F918F917F91AF
:1003B0006F915F914F913F912F910F900FBE0F90D2
:1003C0001F901895FC018E988CE08FBD8EB5887FAC
:1003D0009081892B8EBD9EB581818295880F880F73
:1003E000807C9F7B892B8EBD1DBC1CBC17BC16BCA2
:1003F00089B7806289BF08959093730080937200DB
:1004000008959EB58295880F880F807C9F7B982BDE
:100410009EBD089526B537B5C90108951DBC1CBC05
:1004200008951FBC1EBC1DBC1CBC17BC16BC89B7E4
:100430008F7D89BF10927300109272000895FF9211
:100440000F931F93F82E81E060E041E00E94EC00E2
:1004500000ED17E0C8010197F1F781E061E041E0AC
:100460000E94EC00C8010197F1F780E06F2D0E9417
:100470009101C8010197F1F781E061E040E00E943D
:10048000EC00C8010197F1F71F910F91FF900895BB
:100490001F93CF93DF93EC0110E003C00E941F0273
:1004A0001F5FFE01E10FF11D80818823B9F7DF9105
:1004B000CF911F9108950F931F93DF93CF93CDB7E3
:1004C000DEB760970FB6F894DEBF0FBECDBF8E01CA
:1004D0000F5F1F4FB8014AE050E00E946403C8015B
:1004E0000E94480260960FB6F894DEBF0FBECDBFE3
:1004F000CF91DF911F910F910895FF920F931F935A
:10050000F82E81E060E040E00E94EC0000ED17E092
:10051000C8010197F1F781E061E041E00E94EC0041
:10052000C8010197F1F780E06F2D0E949101C80189
:100530000197F1F781E061E040E00E94EC00C80122
:100540000197F1F71F910F91FF90089581E00E94AC
:100550007D020895813039F0813050F0823029F0E9
:10056000833031F404C0605C03C0605F01C0605B35
:10057000862F80680E947D0208950F931F938A0141
:100580000E94AA02C8010E9448021F910F9108957B
:1005900081E060E041E00E94780081E061E041E0BC
:1005A0000E94780080E49CE90197F1F780E06FEF0A
:1005B0000E947E0188E30E947D028CE00E947D0201
:1005C00081E00E947D020895809175008F5F809385
:1005D00075001092740080917500813031F40E9492
:1005E0000E0280E00E940102089580917500823021
:1005F00071F40E940A02909377008093760081E064
:100600000E9401021092750081E0809374000895A9
:1006100081E065E041E00E94EC0080E28A95F1F71C
:1006200081E065E040E00E94EC0008950E9408032C
:10063000809174008130E1F780917600909177008D
:100640006AE370E00E945003CB010895DF93CF93DB
:1006500000D0CDB7DEB781E065E041E00E947800D0
:1006600081E065E040E00E94EC0083E066E040E06D
:100670000E94780083E066E040E00E94EC0082E0A7
:10068000898381E08A83CE0101960E94E20184EE93
:1006900092E00E94FC010F900F90CF91DF9108959E
:1006A000AA1BBB1B51E107C0AA1FBB1FA617B70798
:1006B00010F0A61BB70B881F991F5A95A9F78095B4
:1006C0009095BC01CD010895FB019F01E894423053
:1006D000C4F04532B4F44A3029F497FB1EF49095E7
:1006E00081959F4F642F77270E945003805D8A3346
:1006F0000CF0895D8193CB010097A1F716F45DE2C0
:1007000051931082C9010C948503DC01FC01672F11
:1007100071917723E1F7329704C07C916D937083D8
:0E0720006291AE17BF07C8F30895F894FFCF9B
:10072E0044697374616E6365203D2000636D002023
:02073E00200099
:00000001FF
