:100000000C942A000C9447000C9447000C94470071
:100010000C9447000C9447000C9447000C943D2727
:100020000C9447000C9410270C9447000C94470044
:100030000C9447000C9447000C9447000C94470024
:100040000C9447000C9447000C9447000C94470014
:100050000C94470011241FBECFE5D8E0DEBFCDBF12
:1000600011E0A0E6B0E0E6E2F4E502C005900D92F2
:10007000A438B107D9F711E0A4E8B1E001C01D929E
:10008000A339B107E1F70E94D2130C94112A0C9402
:100090000000EF92FF920F931F937B018C0120E0F1
:1000A00030E040E05FE40E94490388238CF0C801FF
:1000B000B70120E030E040E05FE40E94C1010E940F
:1000C000A9039B01AC01205030404040504806C07D
:1000D000C801B7010E94A9039B01AC01B901CA0183
:1000E0001F910F91FF90EF900895A0E0B0E0EBE733
:1000F000F0E00C949529DC012B01FA019C919230DF
:1001000008F439C1EB018881823008F433C194309E
:1001100069F4843009F02FC111969C91119789815F
:10012000981709F428C1AEE6B1E025C1843009F47E
:1001300021C18230A9F4923009F01DC19A01AD01AC
:1001400088E0EA010990AE01E90109929E0181501F
:10015000C1F7E201898111969C918923818308C1AD
:10016000923009F407C112962D903C901397EB0141
:100170008A819B811496AD90BD90CD90DC901797AD
:10018000EC80FD800E811F819101281B390BB90184
:1001900037FF04C066277727621B730B6032710537
:1001A0000CF061C0121613066CF537014801062EDB
:1001B00004C096948794779467940A94D2F721E0C8
:1001C00030E040E050E004C0220F331F441F551FB1
:1001D0006A95D2F721503040404050402E213F21B7
:1001E00040235123211531054105510521F021E01E
:1001F00030E040E050E079018A01E628F72808293C
:1002000019293CC0232BD1F1260E371E350146019A
:10021000062E04C096948794779467940A94D2F734
:1002200021E030E040E050E004C0220F331F441FC3
:10023000551F6A95D2F721503040404050402A2146
:100240003B214C215D21211531054105510521F04E
:1002500021E030E040E050E059016A01A628B728CB
:10026000C828D9280BC0821593052CF01C01AA249C
:10027000BB24650103C0EE24FF24870111969C91E5
:10028000D20111968C91981709F445C0992339F041
:10029000A80197012A193B094C095D0906C0A6016E
:1002A00095012E193F09400B510B57FD08C01182D3
:1002B0003382228224833583468357831DC081E0A5
:1002C00081833382228288279927DC01821B930B4A
:1002D000A40BB50B84839583A683B7830DC0220F2F
:1002E000331F441F551F24833583468357838281E0
:1002F000938101979383828324813581468157813D
:10030000DA01C9010197A109B1098F5F9F4FAF4F72
:10031000BF4328F30BC0918333822282EA0CFB1C7B
:100320000C1D1D1DE482F5820683178383E0808304
:10033000248135814681578157FF1AC0C901AA27F8
:1003400097FDA095BA2F81709070A070B0705695EF
:10035000479537952795822B932BA42BB52B848318
:100360009583A683B7838281938101969383828349
:10037000DF0101C0D201CD01CDB7DEB7E2E10C94BF
:10038000B129A0E2B0E0E7ECF1E00C94A129698387
:100390007A838B839C832D833E834F835887E9E048
:1003A000EE2EF12CEC0EFD1ECE010196B7010E943F
:1003B000D2048E010F5E1F4FCE010596B8010E9438
:1003C000D2048A8991E089278A8BC701B801AE01DE
:1003D000475E5F4F0E9475000E94FD03A096E6E015
:1003E0000C94BD29A0E2B0E0E8EFF1E00C94A12963
:1003F00069837A838B839C832D833E834F835887C5
:10040000F9E0EF2EF12CEC0EFD1ECE010196B701A6
:100410000E94D2048E010F5E1F4FCE010596B801D7
:100420000E94D204C701B801AE01475E5F4F0E942F
:1004300075000E94FD03A096E6E00C94BD29A0E2A1
:10044000B0E0E5E2F2E00C94952969837A838B832E
:100450009C832D833E834F835887CE010196BE0136
:10046000675F7F4F0E94D204CE010596BE016F5E8A
:100470007F4F0E94D2049985923088F0898982301A
:10048000C8F0943019F4823051F404C0843029F457
:10049000923081F48EE691E0C6C0923049F420E0BB
:1004A0009A858A89981321E02A87CE010996BBC0D4
:1004B000823049F420E09A858A89981321E02A8BBA
:1004C000CE014196B0C02D843E844F8458886D88FB
:1004D0007E888F88988CEE24FF248701AA24BB2471
:1004E000650140E050E060E070E0E0E0F0E0C10174
:1004F00081709070892BE9F0E60CF71C081D191D1E
:100500009A01AB012A0D3B1D4C1D5D1D80E090E062
:10051000A0E0B0E0E614F7040805190520F481E036
:1005200090E0A0E0B0E0BA01A901480F591F6A1F8E
:100530007B1FAA0CBB1CCC1CDD1C97FE08C081E0F5
:1005400090E0A0E0B0E0A82AB92ACA2ADB2A3196B6
:10055000E032F10549F0660C771C881C991C569412
:10056000479437942794C3CFFA85EA892B893C892D
:100570008B859C85280F391F2E5F3F4F17C0CA01FE
:1005800081709070892B61F016950795F794E79428
:1005900080E090E0A0E0B0E8E82AF92A0A2B1B2BC3
:1005A00076956795579547952F5F3F4F77FDE7CF36
:1005B0000CC0440F551F661F771F17FD4160EE0CDE
:1005C000FF1C001F111F21503040403090E05907A0
:1005D00090E0690790E4790760F32B8F3C8FDB0193
:1005E000CA018F779070A070B07080349105A1051A
:1005F000B10561F447FD0AC0E114F10401051105DC
:1006000029F0405C5F4F6F4F7F4F40781A8EFE1786
:1006100011F081E08A8F4D8F5E8F6F8F78A383E01A
:10062000898FCE0149960E94FD03A096E2E10C94C9
:10063000B129A8E1B0E0EFE1F3E00C94A1296983CE
:100640007A838B839C832D833E834F83588789E0F5
:10065000E82EF12CEC0EFD1ECE010196B7010E9492
:10066000D2048E010F5E1F4FCE010596B8010E9485
:10067000D2048985823040F08989823028F0C70110
:10068000B8010E944A0501C08FEF6896E6E00C941D
:10069000BD29A8E1B0E0EFE4F3E00C94A12969835F
:1006A0007A838B839C832D833E834F83588789E095
:1006B000E82EF12CEC0EFD1ECE010196B7010E9432
:1006C000D2048E010F5E1F4FCE010596B8010E9425
:1006D000D2048985823040F08989823028F0C701B0
:1006E000B8010E944A0501C08FEF6896E6E00C94BD
:1006F000BD29A8E1B0E0EFE7F3E00C94A1296983FC
:100700007A838B839C832D833E834F83588789E034
:10071000E82EF12CEC0EFD1ECE010196B7010E94D1
:10072000D2048E010F5E1F4FCE010596B8010E94C4
:10073000D2048985823040F08989823028F0C7014F
:10074000B8010E944A0501C081E06896E6E00C9479
:10075000BD29ACE0B0E0EFEAF3E00C94A529698391
:100760007A838B839C83CE010196BE016B5F7F4FA2
:100770000E94D2048D81823061F1823050F1843048
:1007800021F48E81882351F12EC02F81388537FDC9
:1007900020C06E812F3131051CF06623F9F023C093
:1007A0008EE190E0821B930B29853A854B855C8511
:1007B00004C056954795379527958A95D2F76623B5
:1007C000B1F050954095309521953F4F4F4F5F4F79
:1007D0000EC020E030E040E050E009C02FEF3FEFD6
:1007E0004FEF5FE704C020E030E040E050E8B9019F
:1007F000CA012C96E2E00C94C129DF92EF92FF929D
:100800000F931F93FC01E480F58006811781D1804E
:100810008081823048F480E090E0A0E1B0E0E82AF6
:10082000F92A0A2B1B2BA5C0843009F49FC0823003
:1008300021F4EE24FF24870105C0E114F104010531
:10084000110519F4E0E0F0E096C0628173819FEF3A
:10085000623879070CF05BC022E83FEF261B370BAC
:100860002A3131052CF020E030E040E050E02AC091
:10087000B801A701022E04C0769567955795479554
:100880000A94D2F781E090E0A0E0B0E004C0880FC5
:10089000991FAA1FBB1F2A95D2F70197A109B10979
:1008A0008E219F21A023B1230097A105B10521F03E
:1008B00081E090E0A0E0B0E09A01AB01282B392B59
:1008C0004A2B5B2BDA01C9018F779070A070B07052
:1008D00080349105A105B10539F427FF09C0205CDA
:1008E0003F4F4F4F5F4F04C0215C3F4F4F4F5F4F13
:1008F000E0E0F0E02030A0E03A07A0E04A07A0E402
:100900005A0710F0E1E0F0E079018A0127C0603871
:10091000710564F5FB01E158FF4FD801C7018F77DE
:100920009070A070B07080349105A105B10539F4C4
:10093000E7FE0DC080E490E0A0E0B0E004C08FE3EB
:1009400090E0A0E0B0E0E80EF91E0A1F1B1F17FFA1
:1009500005C016950795F794E794319687E01695AC
:100960000795F794E7948A95D1F705C0EE24FF2404
:100970008701EFEFF0E06E2F679566276795902F60
:100980009F77D794DD24D7948E2F8695492F462BB9
:10099000582F5D29B701CA011F910F91FF90EF9069
:1009A000DF900895FC01DB01408151812281622F9B
:1009B0006F7770E0221F2227221F9381892F880FD3
:1009C000822B282F30E0991F9927991F11969C930D
:1009D000119721153105A9F54115510561057105DD
:1009E00011F482E037C082E89FEF13969C938E93B8
:1009F00012979A01AB0167E0220F331F441F551F66
:100A00006A95D1F783E08C930DC0220F331F441FEA
:100A1000551F12968D919C911397019713969C9355
:100A20008E931297203080E0380780E0480780E4FA
:100A3000580758F314962D933D934D935C93179755
:100A400008952F3F310579F4411551056105710570
:100A500019F484E08C93089564FF03C081E08C93C3
:100A600012C01C9210C02F57304013963C932E9307
:100A7000129783E08C9387E0440F551F661F771F02
:100A80008A95D1F7706414964D935D936D937C9322
:100A9000179708951F93DC01FB019C91923008F495
:100AA00047C08081823008F443C0943051F41196DD
:100AB0001C91843099F58181682F70E0611B710968
:100AC0003FC0843021F0923031F48230B9F181811D
:100AD000882389F12DC011961C9111978230F1F075
:100AE00081811817D9F412962D913C911397828128
:100AF00093818217930794F028173907BCF0149656
:100B00008D919D910D90BC91A02D248135814681C0
:100B10005781281739074A075B0718F4112341F05A
:100B20000AC082179307A407B50740F4112319F0F0
:100B300061E070E005C06FEF7FEF02C060E070E041
:100B4000CB011F9108950F931F93DF93CF93CDB7E0
:100B5000DEB7E9970FB6F894DEBF0FBECDBF19AE72
:100B600080E690E00E945F2681E060E00E94882697
:100B700000C119AEFAC00E942C1B8A3018F00E94E6
:100B80002C1BF9CF89AD082F10E00E942C1BF80117
:100B9000E857FE4F808380E090E0AAEFB3E48DAB8E
:100BA0009EABAFABB8AF6DA97EA98FA998AD20E081
:100BB00030E04AE753E40E941F02DC01CB0189AB1D
:100BC0009AABABABBCAB69A97AA98BA99CA920E075
:100BD00030E040E85FE30E94790388232CF481E051
:100BE00090E098AB8FA73FC069A97AA98BA99CA96F
:100BF00020E03FEF4FE757E40E94190318164CF529
:100C00006DA97EA98FA998AD20E030E040E251E4C3
:100C10000E941F02DC01CB01BC01CD010E944900F2
:100C2000DC01CB0198AB8FA70FC089E190E09EA7B4
:100C30008DA78DA59EA50197F1F79EA78DA78FA5DE
:100C400098A9019798AB8FA78FA598A9009769F7E6
:100C500014C069A97AA98BA99CA90E944900DC014A
:100C6000CB0198AB8FA78FA598A99CA78BA78BA525
:100C70009CA50197F1F79CA78BA78AE20E94E4212B
:100C800080E090E0A8ECB2E48FA398A7A9A7BAA748
:100C90006FA178A589A59AA520E030E04AE753E442
:100CA0000E941F02DC01CB018BA39CA3ADA3BEA3BA
:100CB0006BA17CA18DA19EA120E030E040E85FE324
:100CC0000E94790388232CF481E090E09AA389A301
:100CD0003FC06BA17CA18DA19EA120E03FEF4FE71B
:100CE00057E40E94190318164CF56FA178A589A541
:100CF0009AA520E030E040E251E40E941F02DC01AE
:100D0000CB01BC01CD010E944900DC01CB019AA3BB
:100D100089A30FC089E190E098A38F8F8F8D98A150
:100D20000197F1F798A38F8F89A19AA101979AA3B0
:100D300089A389A19AA1009769F714C06BA17CA12E
:100D40008DA19EA10E944900DC01CB019AA389A339
:100D500089A19AA19E8F8D8F8D8D9E8D0197F1F720
:100D60009E8F8D8F89AD8F5F89AF89AD853008F4F7
:100D700002CF89AD853009F0FCCE80E090E0AAE793
:100D8000B3E4898F9A8FAB8FBC8F698D7A8D8B8DF1
:100D90009C8D20E030E04AE753E40E941F02DC0112
:100DA000CB018D8B9E8BAF8BB88F6D897E898F89A0
:100DB000988D20E030E040E85FE30E9479038823CB
:100DC0002CF481E090E09C8B8B8B3FC06D897E89F9
:100DD0008F89988D20E03FEF4FE757E40E94190379
:100DE00018164CF5698D7A8D8B8D9C8D20E030E046
:100DF00040E251E40E941F02DC01CB01BC01CD01A5
:100E00000E944900DC01CB019C8B8B8B0FC089E1D8
:100E100090E09A8B898B89899A890197F1F79A8B4F
:100E2000898B8B899C8901979C8B8B8B8B899C8967
:100E3000009769F714C06D897E898F89988D0E940B
:100E40004900DC01CB019C8B8B8B8B899C89988B17
:100E50008F878F8598890197F1F7988B8F870E94EC
:100E60002C1B8D30E1F780E090E0AAE7B3E48B879C
:100E70009C87AD87BE876B857C858D859E8520E0B0
:100E800030E04AE753E40E941F02DC01CB018F836C
:100E90009887A987BA876F81788589859A8520E0A8
:100EA00030E040E85FE30E94790388232CF481E07E
:100EB00090E09E838D833FC06F81788589859A8578
:100EC00020E03FEF4FE757E40E94190318164CF556
:100ED0006B857C858D859E8520E030E040E251E485
:100EE0000E941F02DC01CB01BC01CD010E94490020
:100EF000DC01CB019E838D830FC089E190E09C8350
:100F00008B838B819C810197F1F79C838B838D81EF
:100F10009E8101979E838D838D819E81009769F7C5
:100F200014C06F81788589859A850E944900DC010B
:100F3000CB019E838D838D819E819A838983898154
:100F40009A810197F1F79A838983E9960FB6F8940D
:100F5000DEBF0FBECDBFCF91DF911F910F910895DE
:100F60000F931F93DF93CF93CDB7DEB7E9970FB6FB
:100F7000F894DEBF0FBECDBF19AE80E790E00E94AF
:100F80005F2621E830E081E060E0A9010E94CA26E6
:100F900000C119AEFAC00E942C1B8A3018F00E94C2
:100FA0002C1BF9CF89AD082F10E00E942C1BF801F3
:100FB000E357FE4F808380E090E0AAEFB3E48DAB6F
:100FC0009EABAFABB8AF6DA97EA98FA998AD20E05D
:100FD00030E04AE753E40E941F02DC01CB0189ABF9
:100FE0009AABABABBCAB69A97AA98BA99CA920E051
:100FF00030E040E85FE30E94790388232CF481E02D
:1010000090E098AB8FA73FC069A97AA98BA99CA94A
:1010100020E03FEF4FE757E40E94190318164CF504
:101020006DA97EA98FA998AD20E030E040E251E49F
:101030000E941F02DC01CB01BC01CD010E944900CE
:10104000DC01CB0198AB8FA70FC089E190E09EA790
:101050008DA78DA59EA50197F1F79EA78DA78FA5BA
:1010600098A9019798AB8FA78FA598A9009769F7C2
:1010700014C069A97AA98BA99CA90E944900DC0126
:10108000CB0198AB8FA78FA598A99CA78BA78BA501
:101090009CA50197F1F79CA78BA78AE20E94E42107
:1010A00080E090E0A8ECB2E48FA398A7A9A7BAA724
:1010B0006FA178A589A59AA520E030E04AE753E41E
:1010C0000E941F02DC01CB018BA39CA3ADA3BEA396
:1010D0006BA17CA18DA19EA120E030E040E85FE300
:1010E0000E94790388232CF481E090E09AA389A3DD
:1010F0003FC06BA17CA18DA19EA120E03FEF4FE7F7
:1011000057E40E94190318164CF56FA178A589A51C
:101110009AA520E030E040E251E40E941F02DC0189
:10112000CB01BC01CD010E944900DC01CB019AA397
:1011300089A30FC089E190E098A38F8F8F8D98A12C
:101140000197F1F798A38F8F89A19AA101979AA38C
:1011500089A389A19AA1009769F714C06BA17CA10A
:101160008DA19EA10E944900DC01CB019AA389A315
:1011700089A19AA19E8F8D8F8D8D9E8D0197F1F7FC
:101180009E8F8D8F89AD8F5F89AF89AD853008F4D3
:1011900002CF89AD853009F0FCCE80E090E0AAE76F
:1011A000B3E4898F9A8FAB8FBC8F698D7A8D8B8DCD
:1011B0009C8D20E030E04AE753E40E941F02DC01EE
:1011C000CB018D8B9E8BAF8BB88F6D897E898F897C
:1011D000988D20E030E040E85FE30E9479038823A7
:1011E0002CF481E090E09C8B8B8B3FC06D897E89D5
:1011F0008F89988D20E03FEF4FE757E40E94190355
:1012000018164CF5698D7A8D8B8D9C8D20E030E021
:1012100040E251E40E941F02DC01CB01BC01CD0180
:101220000E944900DC01CB019C8B8B8B0FC089E1B4
:1012300090E09A8B898B89899A890197F1F79A8B2B
:10124000898B8B899C8901979C8B8B8B8B899C8943
:10125000009769F714C06D897E898F89988D0E94E7
:101260004900DC01CB019C8B8B8B8B899C89988BF3
:101270008F878F8598890197F1F7988B8F870E94C8
:101280002C1B8D30E1F780E090E0AAE7B3E48B8778
:101290009C87AD87BE876B857C858D859E8520E08C
:1012A00030E04AE753E40E941F02DC01CB018F8348
:1012B0009887A987BA876F81788589859A8520E084
:1012C00030E040E85FE30E94790388232CF481E05A
:1012D00090E09E838D833FC06F81788589859A8554
:1012E00020E03FEF4FE757E40E94190318164CF532
:1012F0006B857C858D859E8520E030E040E251E461
:101300000E941F02DC01CB01BC01CD010E944900FB
:10131000DC01CB019E838D830FC089E190E09C832B
:101320008B838B819C810197F1F79C838B838D81CB
:101330009E8101979E838D838D819E81009769F7A1
:1013400014C06F81788589859A850E944900DC01E7
:10135000CB019E838D838D819E819A838983898130
:101360009A810197F1F79A838983E9960FB6F894E9
:10137000DEBF0FBECDBFCF91DF911F910F910895BA
:10138000DF93CF93CDB7DEB7EF970FB6F894DEBFFC
:101390000FBECDBF9DAF8CAF7FAF6EAF8CE890E03E
:1013A0000E945F2680E090E0AAE7B3E48DAB9EAB9D
:1013B000AFABB8AF6DA97EA98FA998AD20E030E0A2
:1013C0004AE753E40E941F02DC01CB0189AB9AABD0
:1013D000ABABBCAB69A97AA98BA99CA920E030E092
:1013E00040E85FE30E94790388232CF481E090E0D9
:1013F00098AB8FA73FC069A97AA98BA99CA920E0C7
:101400003FEF4FE757E40E94190318164CF56DA9FA
:101410007EA98FA998AD20E030E040E251E40E941F
:101420001F02DC01CB01BC01CD010E944900DC019F
:10143000CB0198AB8FA70FC089E190E09EA78DA745
:101440008DA59EA50197F1F79EA78DA78FA598A9B9
:10145000019798AB8FA78FA598A9009769F714C03B
:1014600069A97AA98BA99CA90E944900DC01CB013A
:1014700098AB8FA78FA598A99CA78BA78BA59CA598
:101480000197F1F79CA78BA71AAE80C08AAD282FD1
:1014900030E08CAD9DADFC01E20FF31F80810E9416
:1014A0007A2880E090E0A8ECB2E48FA398A7A9A7DF
:1014B000BAA76FA178A589A59AA520E030E04AE7F0
:1014C00053E40E941F02DC01CB018BA39CA3ADA3BC
:1014D000BEA36BA17CA18DA19EA120E030E040E8DD
:1014E0005FE30E94790388232CF481E090E09AA3C3
:1014F00089A33FC06BA17CA18DA19EA120E03FEFFD
:101500004FE757E40E94190318164CF56FA178A510
:1015100089A59AA520E030E040E251E40E941F0234
:10152000DC01CB01BC01CD010E944900DC01CB01F3
:101530009AA389A30FC089E190E098A38F8F8F8D24
:1015400098A10197F1F798A38F8F89A19AA101978C
:101550009AA389A389A19AA1009769F714C06BA1E6
:101560007CA18DA19EA10E944900DC01CB019AA320
:1015700089A389A19AA19E8F8D8F8D8D9E8D0197B4
:10158000F1F79E8F8D8F8AAD8F5F8AAF8AAD8530E0
:1015900008F47CCF19AE80C089AD282F30E08EAD25
:1015A0009FADFC01E20FF31F80810E947A2880E04A
:1015B00090E0A8ECB2E4898F9A8FAB8FBC8F698DD5
:1015C0007A8D8B8D9C8D20E030E04AE753E40E94B9
:1015D0001F02DC01CB018D8B9E8BAF8BB88F6D8989
:1015E0007E898F89988D20E030E040E85FE30E949B
:1015F000790388232CF481E090E09C8B8B8B3FC097
:101600006D897E898F89988D20E03FEF4FE757E401
:101610000E94190318164CF5698D7A8D8B8D9C8D5F
:1016200020E030E040E251E40E941F02DC01CB01E7
:10163000BC01CD010E944900DC01CB019C8B8B8B4E
:101640000FC089E190E09A8B898B89899A890197EB
:10165000F1F79A8B898B8B899C8901979C8B8B8B5B
:101660008B899C89009769F714C06D897E898F8961
:10167000988D0E944900DC01CB019C8B8B8B8B8960
:101680009C89988B8F878F8598890197F1F7988B24
:101690008F8789AD8F5F89AF89AD853008F47CCFA6
:1016A00087E990E00E945F2680E090E0AAE7B3E43B
:1016B0008B879C87AD87BE876B857C858D859E8556
:1016C00020E030E04AE753E40E941F02DC01CB0136
:1016D0008F839887A987BA876F81788589859A854E
:1016E00020E030E040E85FE30E94790388232CF497
:1016F00081E090E09E838D833FC06F8178858985EE
:101700009A8520E03FEF4FE757E40E94190318162F
:101710004CF56B857C858D859E8520E030E040E230
:1017200051E40E941F02DC01CB01BC01CD010E94EB
:101730004900DC01CB019E838D830FC089E190E0DD
:101740009C838B838B819C810197F1F79C838B8396
:101750008D819E8101979E838D838D819E810097CF
:1017600069F714C06F81788589859A850E94490040
:10177000DC01CB019E838D838D819E819A83898339
:1017800089819A810197F1F79A8389830E94912830
:101790008BAF8BADEF960FB6F894DEBF0FBECDBF0B
:1017A000CF91DF910895DF93CF93CDB7DEB70E943D
:1017B00006278CE990E00E945F262AEA30E081E06B
:1017C00060E0A9010E94CA260E942C1BCF91DF91E4
:1017D0000895DF93CF9300D000D0CDB7DEB79C83C0
:1017E0008B8380E00E947A2819820EC08981282F7D
:1017F00030E08B819C81FC01E20FF31F80810E940D
:101800007A2889818F5F89838981853078F30E9466
:1018100091288A838A810F900F900F900F90CF911B
:10182000DF9108950F931F93DF93CF93CDB7DEB76A
:10183000ED970FB6F894DEBF0FBECDBF9DAF8CAF56
:101840001BAE1AAE3EC20E9406278AEB90E00E94B1
:101850005F2681E060E00E94882603C11AAEFDC0C9
:101860000E942C1B8A3018F00E942C1BF9CF8AADE5
:10187000282F30E08CAD9DAD8C01020F131F0E940C
:101880002C1BF801808380E090E0AAEFB3E48DABDD
:101890009EABAFABB8AF6DA97EA98FA998AD20E084
:1018A00030E04AE753E40E941F02DC01CB0189AB20
:1018B0009AABABABBCAB69A97AA98BA99CA920E078
:1018C00030E040E85FE30E94790388232CF481E054
:1018D00090E098AB8FA73FC069A97AA98BA99CA972
:1018E00020E03FEF4FE757E40E94190318164CF52C
:1018F0006DA97EA98FA998AD20E030E040E251E4C7
:101900000E941F02DC01CB01BC01CD010E944900F5
:10191000DC01CB0198AB8FA70FC089E190E09EA7B7
:101920008DA78DA59EA50197F1F79EA78DA78FA5E1
:1019300098A9019798AB8FA78FA598A9009769F7E9
:1019400014C069A97AA98BA99CA90E944900DC014D
:10195000CB0198AB8FA78FA598A99CA78BA78BA528
:101960009CA50197F1F79CA78BA78AE20E94E4212E
:1019700080E090E0A8ECB2E48FA398A7A9A7BAA74B
:101980006FA178A589A59AA520E030E04AE753E445
:101990000E941F02DC01CB018BA39CA3ADA3BEA3BD
:1019A0006BA17CA18DA19EA120E030E040E85FE327
:1019B0000E94790388232CF481E090E09AA389A304
:1019C0003FC06BA17CA18DA19EA120E03FEF4FE71E
:1019D00057E40E94190318164CF56FA178A589A544
:1019E0009AA520E030E040E251E40E941F02DC01B1
:1019F000CB01BC01CD010E944900DC01CB019AA3BF
:101A000089A30FC089E190E098A38F8F8F8D98A153
:101A10000197F1F798A38F8F89A19AA101979AA3B3
:101A200089A389A19AA1009769F714C06BA17CA131
:101A30008DA19EA10E944900DC01CB019AA389A33C
:101A400089A19AA19E8F8D8F8D8D9E8D0197F1F723
:101A50009E8F8D8F8AAD8F5F8AAF8AAD853008F4F7
:101A6000FFCE8AAD853009F0F9CE1AAE0E942C1B4C
:101A70008D30E1F780E090E0AAE7B3E4898F9A8F98
:101A8000AB8FBC8F698D7A8D8B8D9C8D20E030E083
:101A90004AE753E40E941F02DC01CB018D8B9E8B31
:101AA000AF8BB88F6D897E898F89988D20E030E06B
:101AB00040E85FE30E94790388232CF481E090E002
:101AC0009C8B8B8B3FC06D897E898F89988D20E0A0
:101AD0003FEF4FE757E40E94190318164CF5698D44
:101AE0007A8D8B8D9C8D20E030E040E251E40E94A5
:101AF0001F02DC01CB01BC01CD010E944900DC01C9
:101B0000CB019C8B8B8B0FC089E190E09A8B898BEA
:101B100089899A890197F1F79A8B898B8B899C899E
:101B200001979C8B8B8B8B899C89009769F714C0DC
:101B30006D897E898F89988D0E944900DC01CB01D7
:101B40009C8B8B8B8B899C89988B8F878F859889B1
:101B50000197F1F7988B8F878CAD9DAD0E94E90BB3
:101B600089AF89AD833081F50E9406278BEC90E028
:101B70000E945F2682E00E947A2862E070E080E0A6
:101B800090E00E94B6170E9406278AED90E00E941E
:101B90005F2685E00E947A2861E070E080E090E0B6
:101BA0000E94B6170E94062785EE90E00E945F26ED
:101BB00086E00E947A2862E070E080E090E00E9477
:101BC000B6170E94062781C00E94062785EF90E085
:101BD0000E945F2680E090E0AAE7B4E48B879C87B0
:101BE000AD87BE876B857C858D859E8520E030E046
:101BF0004AE753E40E941F02DC01CB018F839887E0
:101C0000A987BA876F81788589859A8520E030E039
:101C100040E85FE30E94790388232CF481E090E0A0
:101C20009E838D833FC06F81788589859A8520E06A
:101C30003FEF4FE757E40E94190318164CF56B85E8
:101C40007C858D859E8520E030E040E251E40E9455
:101C50001F02DC01CB01BC01CD010E944900DC0167
:101C6000CB019E838D830FC089E190E09C838B83A1
:101C70008B819C810197F1F79C838B838D819E8161
:101C800001979E838D838D819E81009769F714C093
:101C90006F81788589859A850E944900DC01CB0196
:101CA0009E838D838D819E819A83898389819A8188
:101CB0000197F1F79A8389830E9406278BAD8F5F86
:101CC0008BAF8BAD833008F4BECD8BAD8330A1F4E8
:101CD0000E9406278BEF90E00E945F2683E00E941F
:101CE0007A2861E070E080E090E00E94B6170E94E0
:101CF000062784E00E947A28ED960FB6F894DEBF9E
:101D00000FBECDBFCF91DF911F910F9108950F931B
:101D10001F93DF93CF93CDB7DEB7C557D0400FB633
:101D2000F894DEBF0FBECDBFFE01EC58FF4F91838C
:101D30008083FE01ED58FF4F108209C5FE01E35973
:101D4000FF4F80E090E0AAEFB3E480839183A28309
:101D5000B3838E0107591F4FFE01E359FF4F608186
:101D600071818281938120E030E04AE753E40E9450
:101D70001F02DC01CB01F80180839183A283B3832E
:101D8000FE01E759FF4F608171818281938120E0DC
:101D900030E040E85FE30E947903882344F4FE01C9
:101DA000E959FF4F81E090E09183808364C0FE0198
:101DB000E759FF4F608171818281938120E03FEF7D
:101DC0004FE757E40E94190318160CF043C0FE01B8
:101DD000E359FF4F608171818281938120E030E07F
:101DE00040E251E40E941F02DC01CB018E0109593F
:101DF0001F4FBC01CD010E944900DC01CB01F8015D
:101E0000918380831FC0FE01EB59FF4F89E190E071
:101E100091838083FE01EB59FF4F8081918101976F
:101E2000F1F7FE01EB59FF4F91838083DE01A95941
:101E3000BF4FFE01E959FF4F8081918101971196B3
:101E40009C938E93FE01E959FF4F80819181009709
:101E5000D1F627C08E0109591F4FFE01E759FF4FE8
:101E600060817181828193810E944900DC01CB01F4
:101E7000F80191838083DE01AD59BF4FFE01E9591E
:101E8000FF4F808191818D939C93FE01ED59FF4F0F
:101E9000808191810197F1F7FE01ED59FF4F918308
:101EA00080830E94062781E091E00E945F2681E006
:101EB00060E00E94882691C1FE01EE58FF4F10821B
:101EC00085C10E942C1B8A3018F00E942C1BF9CF70
:101ED000FE01EE58FF4F8081082F10E00E942C1B5E
:101EE000F801E857FE4F8083FE01E15AFF4F80E082
:101EF00090E0AAEFB3E480839183A283B3838E0141
:101F0000055A1F4FFE01E15AFF4F608171818281A6
:101F1000938120E030E04AE753E40E941F02DC0195
:101F2000CB01F80180839183A283B383FE01E55A3C
:101F3000FF4F608171818281938120E030E040E831
:101F40005FE30E947903882344F4FE01E75AFF4FC0
:101F500081E090E09183808364C0FE01E55AFF4FE9
:101F6000608171818281938120E03FEF4FE757E4E8
:101F70000E94190318160CF043C0FE01E15AFF4FEE
:101F8000608171818281938120E030E040E251E400
:101F90000E941F02DC01CB018E01075A1F4FBC01BA
:101FA000CD010E944900DC01CB01F80191838083BF
:101FB0001FC0FE01E95AFF4F89E190E091838083C1
:101FC000FE01E95AFF4F808191810197F1F7FE01EF
:101FD000E95AFF4F91838083DE01A75ABF4FFE016C
:101FE000E75AFF4F80819181019711969C938E93C0
:101FF000FE01E75AFF4F808191810097D1F627C0FB
:102000008E01075A1F4FFE01E55AFF4F6081718113
:10201000828193810E944900DC01CB01F801918308
:102020008083DE01AB5ABF4FFE01E75AFF4F80812C
:1020300091818D939C93FE01EB5AFF4F808191819A
:102040000197F1F7FE01EB5AFF4F918380838AE2FB
:102050000E94E421FE01EF5AFF4F80E090E0A8ECDF
:10206000B2E480839183A283B3838E01035B1F4F0D
:10207000FE01EF5AFF4F608171818281938120E0E0
:1020800030E04AE753E40E941F02DC01CB01F80173
:1020900080839183A283B383FE01E35BFF4F608162
:1020A00071818281938120E030E040E85FE30E940B
:1020B0007903882344F4FE01E55BFF4F81E090E063
:1020C0009183808364C0FE01E35BFF4F6081718177
:1020D0008281938120E03FEF4FE757E40E9419038C
:1020E00018160CF043C0FE01EF5AFF4F608171815A
:1020F0008281938120E030E040E251E40E941F029F
:10210000DC01CB018E01055B1F4FBC01CD010E949C
:102110004900DC01CB01F801918380831FC0FE01DF
:10212000E75BFF4F89E190E091838083FE01E75BED
:10213000FF4F808191810197F1F7FE01E75BFF4F2F
:1021400091838083DE01A55BBF4FFE01E55BFF4FFE
:1021500080819181019711969C938E93FE01E55B9E
:10216000FF4F808191810097D1F627C08E01055BDA
:102170001F4FFE01E35BFF4F60817181828193817C
:102180000E944900DC01CB01F80191838083DE01CC
:10219000A95BBF4FFE01E55BFF4F808191818D936D
:1021A0009C93FE01E95BFF4F808191810197F1F7DC
:1021B000FE01E95BFF4F91838083DE01AE58BF4F84
:1021C000FE01EE58FF4F80818F5F8C93FE01EE5829
:1021D000FF4F8081853008F474CEFE01EE58FF4F2A
:1021E0008081853009F068CEFE01EE58FF4F1082E5
:1021F0000E942C1B8D30E1F7FE01ED5BFF4F80E06C
:1022000090E0AAE7B3E480839183A283B3838E0135
:10221000015C1F4FFE01ED5BFF4F60817181828188
:10222000938120E030E04AE753E40E941F02DC0182
:10223000CB01F80180839183A283B383FE01FF96D3
:10224000608171818281938120E030E040E85FE32A
:102250000E94790388232CF481E090E09EAF8DAF3B
:1022600046C0FE01FF96608171818281938120E0EA
:102270003FEF4FE757E40E941903181664F5FE017B
:10228000ED5BFF4F608171818281938120E030E0BE
:1022900040E251E40E941F02DC01CB01BC01CD01F0
:1022A0000E944900DC01CB019EAF8DAF0FC089E1D8
:1022B00090E09CAF8BAF8BAD9CAD0197F1F79CAFDD
:1022C0008BAF8DAD9EAD01979EAF8DAF8DAD9EADA9
:1022D000009769F716C0FE01FF96608171818281C7
:1022E00093810E944900DC01CB019EAF8DAF8DAD83
:1022F0009EAD9AAF89AF89AD9AAD0197F1F79AAFCC
:1023000089AFFE01EC58FF4F808191810E94E90B5B
:10231000FE01EF58FF4F8083FE01EF58FF4F808191
:10232000833009F091C10E94062780E090E0AAEF77
:10233000B3E48DAB9EABAFABB8AF6DA97EA98FA94F
:1023400098AD20E030E04AE753E40E941F02DC0130
:10235000CB0189AB9AABABABBCAB69A97AA98BA912
:102360009CA920E030E040E85FE30E9479038823E5
:102370002CF481E090E098AB8FA73FC069A97AA9BF
:102380008BA99CA920E03FEF4FE757E40E94190377
:1023900018164CF56DA97EA98FA998AD20E030E004
:1023A00040E251E40E941F02DC01CB01BC01CD01DF
:1023B0000E944900DC01CB0198AB8FA70FC089E1D7
:1023C00090E09EA78DA78DA59EA50197F1F79EA7EA
:1023D0008DA78FA598A9019798AB8FA78FA598A9CE
:1023E000009769F714C069A97AA98BA99CA90E94D2
:1023F0004900DC01CB0198AB8FA78FA598A99CA7BA
:102400008BA78BA59CA50197F1F79CA78BA70E9492
:10241000A3050E9406270E94B00781E00E947A2847
:1024200088E891E02DE831E0B9010E94C009FE0181
:10243000EF58FF4F8083FE01EF58FF4F80818823C4
:1024400009F07BC00E94062781E191E00E945F268F
:1024500080E090E8ABEBB4E48FA398A7A9A7BAA754
:102460006FA178A589A59AA520E030E04AE753E45A
:102470000E941F02DC01CB018BA39CA3ADA3BEA3D2
:102480006BA17CA18DA19EA120E030E040E85FE33C
:102490000E94790388232CF481E090E09AA389A319
:1024A0003FC06BA17CA18DA19EA120E03FEF4FE733
:1024B00057E40E94190318164CF56FA178A589A559
:1024C0009AA520E030E040E251E40E941F02DC01C6
:1024D000CB01BC01CD010E944900DC01CB019AA3D4
:1024E00089A30FC089E190E098A38F8F8F8D98A169
:1024F0000197F1F798A38F8F89A19AA101979AA3C9
:1025000089A389A19AA1009769F714C06BA17CA146
:102510008DA19EA10E944900DC01CB019AA389A351
:1025200089A19AA19E8F8D8F8D8D9E8D0197F1F738
:102530009E8F8D8F0E9406277FC0FE01EF58FF4FB0
:102540008081813009F078C00E9406278DE191E0FA
:102550000E945F2680E090E8ABEBB4E4898F9A8F0D
:10256000AB8FBC8F698D7A8D8B8D9C8D20E030E098
:102570004AE753E40E941F02DC01CB018D8B9E8B46
:10258000AF8BB88F6D897E898F89988D20E030E080
:1025900040E85FE30E94790388232CF481E090E017
:1025A0009C8B8B8B3FC06D897E898F89988D20E0B5
:1025B0003FEF4FE757E40E94190318164CF5698D59
:1025C0007A8D8B8D9C8D20E030E040E251E40E94BA
:1025D0001F02DC01CB01BC01CD010E944900DC01DE
:1025E000CB019C8B8B8B0FC089E190E09A8B898B00
:1025F00089899A890197F1F79A8B898B8B899C89B4
:1026000001979C8B8B8B8B899C89009769F714C0F1
:102610006D897E898F89988D0E944900DC01CB01EC
:102620009C8B8B8B8B899C89988B8F878F859889C6
:102630000197F1F7988B8F87FE01EF58FF4F80814C
:10264000882309F470CE8AC0DE01AD58BF4FFE0169
:10265000ED58FF4F80818F5F8C930E9406278CE29C
:1026600091E00E945F2680E090E0AAE7B4E48B87C7
:102670009C87AD87BE876B857C858D859E8520E098
:1026800030E04AE753E40E941F02DC01CB018F8354
:102690009887A987BA876F81788589859A8520E090
:1026A00030E040E85FE30E94790388232CF481E066
:1026B00090E09E838D833FC06F81788589859A8560
:1026C00020E03FEF4FE757E40E94190318164CF53E
:1026D0006B857C858D859E8520E030E040E251E46D
:1026E0000E941F02DC01CB01BC01CD010E94490008
:1026F000DC01CB019E838D830FC089E190E09C8338
:102700008B838B819C810197F1F79C838B838D81D7
:102710009E8101979E838D838D819E81009769F7AD
:1027200014C06F81788589859A850E944900DC01F3
:10273000CB019E838D838D819E819A83898389813C
:102740009A810197F1F79A8389830E940627FE01F7
:10275000ED58FF4F8081833008F4F0CAFE01ED5838
:10276000FF4F8081833091F40E9406278BEF90E029
:102770000E945F2683E00E947A2861E070E080E09A
:1027800090E00E94B61784E00E947A28CB58DF4F71
:102790000FB6F894DEBF0FBECDBFCF91DF911F9172
:1027A0000F9108950F931F93DF93CF93CDB7DEB7AB
:1027B000C456D0400FB6F894DEBF0FBECDBF0E9406
:1027C000B71C82E391E00E945F2623E431E081E0C0
:1027D00060E0A9010E94CA26FE01EF5AFF4F80E087
:1027E00090E0AAE7B5E480839183A283B3838E014E
:1027F000035B1F4FFE01EF5AFF4F608171818281A1
:10280000938120E030E04AE753E40E941F02DC019C
:10281000CB01F80180839183A283B383FE01E35B44
:10282000FF4F608171818281938120E030E040E838
:102830005FE30E947903882344F4FE01E55BFF4FC8
:1028400081E090E09183808364C0FE01E35BFF4FF1
:10285000608171818281938120E03FEF4FE757E4EF
:102860000E94190318160CF043C0FE01EF5AFF4FE7
:10287000608171818281938120E030E040E251E407
:102880000E941F02DC01CB018E01055B1F4FBC01C2
:10289000CD010E944900DC01CB01F80191838083C6
:1028A0001FC0FE01E75BFF4F89E190E091838083C9
:1028B000FE01E75BFF4F808191810197F1F7FE01F7
:1028C000E75BFF4F91838083DE01A55BBF4FFE0175
:1028D000E55BFF4F80819181019711969C938E93C8
:1028E000FE01E55BFF4F808191810097D1F627C003
:1028F0008E01055B1F4FFE01E35BFF4F608171811D
:10290000828193810E944900DC01CB01F80191830F
:102910008083DE01A95BBF4FFE01E55BFF4F808135
:1029200091818D939C93FE01E95BFF4F80819181A2
:102930000197F1F7FE01E95BFF4F918380830E94CD
:102940000627CE01895A9F4FA2969FAF8EAFA297BE
:102950002CE731E0A4963FAF2EAFA49737E0A596C1
:102960003FAFA597A496EEADFFADA4970080A496C7
:102970002EAD3FADA4972F5F3F4FA4963FAF2EAF34
:10298000A497A296EEADFFADA2970082A2962EADBF
:102990003FADA2972F5F3F4FA2963FAF2EAFA297BA
:1029A000A5963FADA5973150A5963FAFA597A596A3
:1029B0008FADA5978823B1F6CE01895A9F4F0E940B
:1029C0001128AFE5B0E0EFE5F0E0808180688C93FE
:1029D0000E94A3050E9406270E94B0070E940627B6
:1029E00088E891E02DE831E0B9010E94C009FE01BC
:1029F000EA5AFF4F8083A2C081E060E00E948826EF
:102A000081E191E00E945F26FE01ED5BFF4F80E0D7
:102A100090E0AAE7B4E480839183A283B3838E011C
:102A2000015C1F4FFE01ED5BFF4F60817181828170
:102A3000938120E030E04AE753E40E941F02DC016A
:102A4000CB01F80180839183A283B383FE01FF96BB
:102A5000608171818281938120E030E040E85FE312
:102A60000E94790388232CF481E090E09EAF8DAF23
:102A700046C0FE01FF96608171818281938120E0D2
:102A80003FEF4FE757E40E941903181664F5FE0163
:102A9000ED5BFF4F608171818281938120E030E0A6
:102AA00040E251E40E941F02DC01CB01BC01CD01D8
:102AB0000E944900DC01CB019EAF8DAF0FC089E1C0
:102AC00090E09CAF8BAF8BAD9CAD0197F1F79CAFC5
:102AD0008BAF8DAD9EAD01979EAF8DAF8DAD9EAD91
:102AE000009769F716C0FE01FF96608171818281AF
:102AF00093810E944900DC01CB019EAF8DAF8DAD6B
:102B00009EAD9AAF89AF89AD9AAD0197F1F79AAFB3
:102B100089AF0E9406270E94A3050E9406270E94F3
:102B2000B0070E94062788E891E02DE831E0B9015E
:102B30000E94C009FE01EA5AFF4F8083FE01EA5A53
:102B4000FF4F8081882309F457CFFE01EA5AFF4FD7
:102B50008081813009F07AC081E060E00E9488269F
:102B600084E591E00E945F2680E090E0AAEFB4E463
:102B70008DAB9EABAFABB8AF6DA97EA98FA998AD59
:102B800020E030E04AE753E40E941F02DC01CB0161
:102B900089AB9AABABABBCAB69A97AA98BA99CA951
:102BA00020E030E040E85FE30E94790388232CF4C2
:102BB00081E090E098AB8FA73FC069A97AA98BA963
:102BC0009CA920E03FEF4FE757E40E941903181635
:102BD0004CF56DA97EA98FA998AD20E030E040E2C8
:102BE00051E40E941F02DC01CB01BC01CD010E9417
:102BF0004900DC01CB0198AB8FA70FC089E190E0C1
:102C00009EA78DA78DA59EA50197F1F79EA78DA7DD
:102C10008FA598A9019798AB8FA78FA598A9009722
:102C200069F714C069A97AA98BA99CA90E944900D7
:102C3000DC01CB0198AB8FA78FA598A99CA78BA788
:102C40008BA59CA50197F1F79CA78BA70E94D30B9E
:102C5000FE01EB5AFF4F8083FE01EB5AFF4F80814C
:102C6000282F30E0A0963FAF2EAFA097A0968EAD54
:102C70009FADA0978B32910549F0A096EEADFFADC8
:102C8000A097ED32F10509F4F2C0E0CF80E090E0CA
:102C9000AAE7B4E48FA398A7A9A7BAA76FA178A5BC
:102CA00089A59AA520E030E04AE753E40E941F027C
:102CB000DC01CB018BA39CA3ADA3BEA36BA17CA124
:102CC0008DA19EA120E030E040E85FE30E947903FF
:102CD00088232CF481E090E09AA389A33FC06BA1E4
:102CE0007CA18DA19EA120E03FEF4FE757E40E9419
:102CF000190318164CF56FA178A589A59AA520E0AF
:102D000030E040E251E40E941F02DC01CB01BC0133
:102D1000CD010E944900DC01CB019AA389A30FC019
:102D200089E190E098A38F8F8F8D98A10197F1F79B
:102D300098A38F8F89A19AA101979AA389A389A1AA
:102D40009AA1009769F714C06BA17CA18DA19EA1E7
:102D50000E944900DC01CB019AA389A389A19AA111
:102D60009E8F8D8F8D8D9E8D0197F1F79E8F8D8F0C
:102D70000E9406278CE591E00E945F2680E090E0AB
:102D8000AAEFB3E4898F9A8FAB8FBC8F698D7A8D50
:102D90008B8D9C8D20E030E04AE753E40E941F02B7
:102DA000DC01CB018D8B9E8BAF8BB88F6D897E89BB
:102DB0008F89988D20E030E040E85FE30E9479033E
:102DC00088232CF481E090E09C8B8B8B3FC06D8935
:102DD0007E898F89988D20E03FEF4FE757E40E946E
:102DE000190318164CF5698D7A8D8B8D9C8D20E01A
:102DF00030E040E251E40E941F02DC01CB01BC0143
:102E0000CD010E944900DC01CB019C8B8B8B0FC054
:102E100089E190E09A8B898B89899A890197F1F7EA
:102E20009A8B898B8B899C8901979C8B8B8B8B8947
:102E30009C89009769F714C06D897E898F89988D68
:102E40000E944900DC01CB019C8B8B8B8B899C8978
:102E5000988B8F878F8598890197F1F7988B8F874B
:102E60000E94062788E891E00E94120CEFCE0E9493
:102E7000062785E691E00E945F2680E090E0AAEFB9
:102E8000B3E48B879C87AD87BE876B857C858D85FA
:102E90009E8520E030E04AE753E40E941F02DC01F7
:102EA000CB018F839887A987BA876F8178858985B9
:102EB0009A8520E030E040E85FE30E9479038823B0
:102EC0002CF481E090E09E838D833FC06F817885F4
:102ED00089859A8520E03FEF4FE757E40E94190368
:102EE00018164CF56B857C858D859E8520E030E03D
:102EF00040E251E40E941F02DC01CB01BC01CD0184
:102F00000E944900DC01CB019E838D830FC089E1C3
:102F100090E09C838B838B819C810197F1F79C834C
:102F20008B838D819E8101979E838D838D819E8170
:102F3000009769F714C06F81788589859A850E940A
:102F40004900DC01CB019E838D838D819E819A8314
:102F5000898389819A810197F1F79A8389830E94F5
:102F6000062788E891E00E94870E70CEDF93CF930A
:102F700000D000D0CDB7DEB769837A838B839C8382
:102F800086E791E00E946A2782EE97E10E94FF2780
:102F900080918501282F30E040E050E089819A81BE
:102FA000AB81BC81281739074A075B0789F70E9464
:102FB000DF27109285010F900F900F900F90CF9107
:102FC000DF910895DF93CF93CDB7DEB78091850170
:102FD0008F5F80938501CF91DF910895DF93CF9329
:102FE00000D000D00F92CDB7DEB789836A834B83C0
:102FF0008A81883008F0D5C08981843008F0D1C03A
:103000008981282F30E03D832C838C819D81813004
:10301000910509F443C02C813D81223031052CF407
:103020008C819D81009771F0BCC02C813D81223044
:10303000310509F45FC08C819D818330910509F4CD
:1030400085C0AFC08B818130A1F4AAE3B0E0EAE390
:10305000F0E08081482F8A81282F30E081E090E0E5
:10306000022E02C0880F991F0A94E2F7842B8C93DA
:1030700098C0AAE3B0E0EAE3F0E08081482F8A81BB
:10308000282F30E081E090E0022E02C0880F991FC7
:103090000A94E2F7809584238C9383C08B818130DE
:1030A000A1F4A7E3B0E0E7E3F0E08081482F8A8154
:1030B000282F30E081E090E0022E02C0880F991F97
:1030C0000A94E2F7842B8C936CC0A7E3B0E0E7E3AB
:1030D000F0E08081482F8A81282F30E081E090E065
:1030E000022E02C0880F991F0A94E2F7809584236C
:1030F0008C9357C08B818130A1F4A4E3B0E0E4E36A
:10310000F0E08081482F8A81282F30E081E090E034
:10311000022E02C0880F991F0A94E2F7842B8C9329
:1031200040C0A4E3B0E0E4E3F0E08081482F8A816E
:10313000282F30E081E090E0022E02C0880F991F16
:103140000A94E2F7809584238C932BC08B81813085
:10315000A1F4A1E3B0E0E1E3F0E08081482F8A81AF
:10316000282F30E081E090E0022E02C0880F991FE6
:103170000A94E2F7842B8C9314C0A1E3B0E0E1E35E
:10318000F0E08081482F8A81282F30E081E090E0B4
:10319000022E02C0880F991F0A94E2F780958423BB
:1031A0008C930F900F900F900F900F90CF91DF9115
:1031B0000895DF93CF9300D000D00F92CDB7DEB744
:1031C00089836A834B838A81883008F0D5C08981DE
:1031D000843008F0D1C08981282F30E03D832C83D2
:1031E0008C819D818130910509F443C02C813D8102
:1031F000223031052CF48C819D81009771F0BCC088
:103200002C813D812230310509F45FC08C819D8184
:103210008330910509F485C0AFC08B818130A1F462
:10322000ABE3B0E0EBE3F0E08081482F8A81282F08
:1032300030E081E090E0022E02C0880F991F0A94CE
:10324000E2F7842B8C9398C0ABE3B0E0EBE3F0E0C3
:103250008081482F8A81282F30E081E090E0022E83
:1032600002C0880F991F0A94E2F7809584238C93FB
:1032700083C08B818130A1F4A8E3B0E0E8E3F0E003
:103280008081482F8A81282F30E081E090E0022E53
:1032900002C0880F991F0A94E2F7842B8C936CC0AC
:1032A000A8E3B0E0E8E3F0E08081482F8A81282F8E
:1032B00030E081E090E0022E02C0880F991F0A944E
:1032C000E2F7809584238C9357C08B818130A1F4E1
:1032D000A5E3B0E0E5E3F0E08081482F8A81282F64
:1032E00030E081E090E0022E02C0880F991F0A941E
:1032F000E2F7842B8C9340C0A5E3B0E0E5E3F0E077
:103300008081482F8A81282F30E081E090E0022ED2
:1033100002C0880F991F0A94E2F7809584238C934A
:103320002BC08B818130A1F4A2E3B0E0E2E3F0E0B6
:103330008081482F8A81282F30E081E090E0022EA2
:1033400002C0880F991F0A94E2F7842B8C9314C053
:10335000A2E3B0E0E2E3F0E08081482F8A81282FE9
:1033600030E081E090E0022E02C0880F991F0A949D
:10337000E2F7809584238C930F900F900F900F901D
:103380000F90CF91DF910895DF93CF9300D000D0BD
:103390000F92CDB7DEB78A836B8319828B81883019
:1033A00008F084C08A81843008F080C08A81282F88
:1033B00030E03D832C834C815D814130510579F1B2
:1033C0008C819D818230910534F42C813D812115C1
:1033D000310569F06BC04C815D8142305105B9F116
:1033E0008C819D818330910509F449C05FC0E9E378
:1033F000F0E08081282F30E08B81882F90E0A901B8
:1034000002C0559547958A95E2F7CA018170907080
:10341000882319F081E0898349C0198247C0E6E317
:10342000F0E08081282F30E08B81882F90E0A90187
:1034300002C0559547958A95E2F7CA018170907050
:10344000882319F081E0898331C019822FC0E3E31A
:10345000F0E08081282F30E08B81882F90E0A90157
:1034600002C0559547958A95E2F7CA018170907020
:10347000882319F081E0898319C0198217C0E0E31D
:10348000F0E08081282F30E08B81882F90E0A90127
:1034900002C0559547958A95E2F7CA0181709070F0
:1034A000882319F081E0898301C0198289810F90F6
:1034B0000F900F900F900F90CF91DF910895DF93B1
:1034C000CF9300D000D0CDB7DEB789836A838981DE
:1034D000843090F58981282F30E03C832B838B81C9
:1034E0009C8181309105D1F02B813C8122303105C6
:1034F0002CF48B819C81009761F01EC02B813C8154
:103500002230310581F08B819C818330910581F0DF
:1035100013C0EAE3F0E08A8180830EC0E7E3F0E0C5
:103520008A81808309C0E4E3F0E08A81808304C05B
:10353000E1E3F0E08A8180830F900F900F900F906D
:10354000CF91DF910895DF93CF9300D000D0CDB716
:10355000DEB789836A838981843090F58981282F39
:1035600030E03C832B838B819C8181309105D1F0AD
:103570002B813C81223031052CF48B819C8100977A
:1035800061F01EC02B813C812230310581F08B819E
:103590009C818330910581F013C0EBE3F0E08A81D8
:1035A00080830EC0E8E3F0E08A81808309C0E5E310
:1035B000F0E08A81808304C0E2E3F0E08A818083C6
:1035C0000F900F900F900F90CF91DF910895DF93A0
:1035D000CF9300D000D0CDB7DEB78A8319828A811D
:1035E000843090F58A81282F30E03C832B838B81B7
:1035F0009C8181309105D1F02B813C8122303105B5
:103600002CF48B819C81009761F01EC02B813C8142
:103610002230310581F08B819C818330910581F0CE
:1036200013C0E9E3F0E0808189830EC0E6E3F0E0B7
:103630008081898309C0E3E3F0E08081898304C04D
:10364000E0E3F0E08081898389810F900F900F90F3
:103650000F90CF91DF910895DF93CF93CDB7DEB771
:1036600060970FB6F894DEBF0FBECDBF80E060E07C
:1036700040E00E94EE1780E061E040E00E94EE171B
:1036800080E062E040E00E94EE1780E063E040E00E
:103690000E94EE1780E064E040E00E94EE1780E0B8
:1036A00065E040E00E94EE1780E066E040E00E94A6
:1036B000EE1780E067E040E00E94EE171F86ABC087
:1036C00080E06F8541E00E94EE1780E06F8540E06A
:1036D0000E94D918188A22C08889982F9C5F80E0A0
:1036E000692F0E94C4198823B1F48F85882F90E038
:1036F000880F991F880F991F982F8889890F8F5FCE
:103700000E94101C60960FB6F894DEBF0FBECDBFAE
:10371000CF91DF91089588898F5F888B8889843065
:10372000D8F280E06F8540E00E94EE1780E090E0E4
:10373000A0EAB0E48B879C87AD87BE876B857C85CC
:103740008D859E8520E030E04AE753E40E941F0209
:10375000DC01CB018F839887A987BA876F81788531
:1037600089859A8520E030E040E85FE30E94790394
:1037700088232CF481E090E09E838D833FC06F818D
:10378000788589859A8520E03FEF4FE757E40E94CE
:10379000190318164CF56B857C858D859E8520E078
:1037A00030E040E251E40E941F02DC01CB01BC0189
:1037B000CD010E944900DC01CB019E838D830FC0A7
:1037C00089E190E09C838B838B819C810197F1F749
:1037D0009C838B838D819E8101979E838D838D81B8
:1037E0009E81009769F714C06F81788589859A85D5
:1037F0000E944900DC01CB019E838D838D819E81D7
:103800009A83898389819A810197F1F79A838983C1
:103810008F858F5F8F878F85843008F451CF4ECF8F
:10382000DF93CF9300D000D0CDB7DEB78A83198263
:103830008A81282F30E03C832B838B819C818830C8
:10384000910509F470C02B813C81293031055CF56C
:103850008B819C818430910509F459C02B813C8176
:10386000253031059CF48B819C818230910509F4CF
:1038700048C02B813C81233031050CF045C08B8141
:103880009C818130910509F439C067C02B813C814E
:103890002630310509F441C08B819C818730910528
:1038A0000CF03EC037C02B813C812C30310509F42F
:1038B00046C08B819C818D3091055CF42B813C81CD
:1038C0002A303105B1F18B819C818B309105A4F5B3
:1038D0002DC02B813C812E303105B9F18B819C812B
:1038E0008E3091057CF12B813C812F30310579F1AF
:1038F0008B819C818031910569F12FC087E089839C
:103900002EC088E089832BC089E0898328C085E2A6
:10391000898325C084E0898322C085E089831FC014
:1039200086E089831CC08AE2898319C081E089838B
:1039300016C082E0898313C083E0898310C08DE2C2
:1039400089830DC08DE089830AC0198208C08DE388
:10395000898305C08BE2898302C08A81898389813A
:103960000F900F900F900F90CF91DF910895DF93FC
:10397000CF93CDB7DEB72E970FB6F894DEBF0FBE4C
:10398000CDBF81E062E041E00E94EE1781E063E09C
:1039900041E00E94EE1780E090E0A0EAB1E48B875E
:1039A0009C87AD87BE876B857C858D859E8520E055
:1039B00030E04AE753E40E941F02DC01CB018F8311
:1039C0009887A987BA876F81788589859A8520E04D
:1039D00030E040E85FE30E94790388232CF481E023
:1039E00090E09E838D833FC06F81788589859A851D
:1039F00020E03FEF4FE757E40E94190318164CF5FB
:103A00006B857C858D859E8520E030E040E251E429
:103A10000E941F02DC01CB01BC01CD010E944900C4
:103A2000DC01CB019E838D830FC089E190E09C83F4
:103A30008B838B819C810197F1F79C838B838D8194
:103A40009E8101979E838D838D819E81009769F76A
:103A500014C06F81788589859A850E944900DC01B0
:103A6000CB019E838D838D819E819A8389838981F9
:103A70009A810197F1F79A83898381E064E041E0BC
:103A80000E94EE1781E065E041E00E94EE1781E0C0
:103A900066E041E00E94EE1781E067E041E00E94AD
:103AA000EE1783E30E94691D82E30E94691D88E28C
:103AB0000E94691D8CE00E94691D81E00E94691DC1
:103AC0002E960FB6F894DEBF0FBECDBFCF91DF911B
:103AD00008950F931F93DF93CF93CDB7DEB7C356EF
:103AE000D0400FB6F894DEBF0FBECDBFFE01ED593A
:103AF000FF4F808381E062E040E00E94D918FE0120
:103B0000E15AFF4F80E090E0A0E8BFE3808391831B
:103B1000A283B3838E01055A1F4FFE01E15AFF4F66
:103B2000608171818281938120E030E04AE753E433
:103B30000E941F02DC01CB01F80180839183A283E4
:103B4000B383FE01E55AFF4F6081718182819381C9
:103B500020E030E040E85FE30E947903882344F4EA
:103B6000FE01E75AFF4F81E090E09183808364C0BB
:103B7000FE01E55AFF4F608171818281938120E0CF
:103B80003FEF4FE757E40E94190318160CF043C0AB
:103B9000FE01E15AFF4F608171818281938120E0B3
:103BA00030E040E251E40E941F02DC01CB018E01B3
:103BB000075A1F4FBC01CD010E944900DC01CB0117
:103BC000F801918380831FC0FE01E95AFF4F89E10C
:103BD00090E091838083FE01E95AFF4F80819181BB
:103BE0000197F1F7FE01E95AFF4F91838083DE01CF
:103BF000A75ABF4FFE01E75AFF4F8081918101977D
:103C000011969C938E93FE01E75AFF4F808191811C
:103C10000097D1F627C08E01075A1F4FFE01E55AC3
:103C2000FF4F60817181828193810E944900DC0194
:103C3000CB01F80191838083DE01AB5ABF4FFE01B7
:103C4000E75AFF4F808191818D939C93FE01EB5A3F
:103C5000FF4F808191810197F1F7FE01EB5AFF4FF1
:103C60009183808381E063E041E00E94D918FE01E6
:103C7000EF5AFF4F80E090E0A0E8BFE3808391839C
:103C8000A283B3838E01035B1F4FFE01EF5AFF4FE8
:103C9000608171818281938120E030E04AE753E4C2
:103CA0000E941F02DC01CB01F80180839183A28373
:103CB000B383FE01E35BFF4F608171818281938159
:103CC00020E030E040E85FE30E947903882344F479
:103CD000FE01E55BFF4F81E090E09183808364C04B
:103CE000FE01E35BFF4F608171818281938120E05F
:103CF0003FEF4FE757E40E94190318160CF043C03A
:103D0000FE01EF5AFF4F608171818281938120E033
:103D100030E040E251E40E941F02DC01CB018E0141
:103D2000055B1F4FBC01CD010E944900DC01CB01A6
:103D3000F801918380831FC0FE01E75BFF4F89E19B
:103D400090E091838083FE01E75BFF4F808191814A
:103D50000197F1F7FE01E75BFF4F91838083DE015E
:103D6000A55BBF4FFE01E55BFF4F8081918101970D
:103D700011969C938E93FE01E55BFF4F80819181AC
:103D80000097D1F627C08E01055B1F4FFE01E35B54
:103D9000FF4F60817181828193810E944900DC0123
:103DA000CB01F80191838083DE01A95BBF4FFE0147
:103DB000E55BFF4F808191818D939C93FE01E95BD0
:103DC000FF4F808191810197F1F7FE01E95BFF4F81
:103DD00091838083FE01ED59FF4F8081882F90E011
:103DE0008071907095958795959587959595879510
:103DF00095958795982F81E064E0492F0E94D91806
:103E0000FE01ED59FF4F8081882F90E08072907005
:103E1000959587959595879595958795959587958A
:103E200095958795982F81E065E0492F0E94D918D4
:103E3000FE01ED59FF4F8081882F90E080749070D3
:103E4000082E892F000C881F990B000C881F991FC2
:103E5000982F81E066E0492F0E94D918FE01ED59A4
:103E6000FF4F8081982F991F9927991F81E067E064
:103E7000492F0E94D918FE01ED5BFF4F80E090E0D2
:103E8000A0E8BFE380839183A283B3838E01015CAA
:103E90001F4FFE01ED5BFF4F608171818281938135
:103EA00020E030E04AE753E40E941F02DC01CB012E
:103EB000F80180839183A283B383FE01FF96608122
:103EC00071818281938120E030E040E85FE30E94CD
:103ED000790388232CF481E090E09EAF8DAF46C03B
:103EE000FE01FF96608171818281938120E03FEF26
:103EF0004FE757E40E941903181664F5FE01ED5BC5
:103F0000FF4F608171818281938120E030E040E247
:103F100051E40E941F02DC01CB01BC01CD010E94D3
:103F20004900DC01CB019EAF8DAF0FC089E190E06D
:103F30009CAF8BAF8BAD9CAD0197F1F79CAF8BAF76
:103F40008DAD9EAD01979EAF8DAF8DAD9EAD0097AF
:103F500069F716C0FE01FF966081718182819381AD
:103F60000E944900DC01CB019EAF8DAF8DAD9EADAF
:103F70009AAF89AF89AD9AAD0197F1F79AAF89AF42
:103F800081E063E040E00E94D91880E090E0A0E882
:103F9000BFE38DAB9EABAFABB8AF6DA97EA98FA9C8
:103FA00098AD20E030E04AE753E40E941F02DC01B4
:103FB000CB0189AB9AABABABBCAB69A97AA98BA996
:103FC0009CA920E030E040E85FE30E947903882369
:103FD0002CF481E090E098AB8FA73FC069A97AA943
:103FE0008BA99CA920E03FEF4FE757E40E941903FB
:103FF00018164CF56DA97EA98FA998AD20E030E088
:1040000040E251E40E941F02DC01CB01BC01CD0162
:104010000E944900DC01CB0198AB8FA70FC089E15A
:1040200090E09EA78DA78DA59EA50197F1F79EA76D
:104030008DA78FA598A9019798AB8FA78FA598A951
:10404000009769F714C069A97AA98BA99CA90E9455
:104050004900DC01CB0198AB8FA78FA598A99CA73D
:104060008BA78BA59CA50197F1F79CA78BA781E057
:1040700063E041E00E94D91880E090E0A0E8BFE34F
:104080008FA398A7A9A7BAA76FA178A589A59AA574
:1040900020E030E04AE753E40E941F02DC01CB013C
:1040A0008BA39CA3ADA3BEA36BA17CA18DA19EA15C
:1040B00020E030E040E85FE30E94790388232CF49D
:1040C00081E090E09AA389A33FC06BA17CA18DA160
:1040D0009EA120E03FEF4FE757E40E941903181616
:1040E0004CF56FA178A589A59AA520E030E040E2C3
:1040F00051E40E941F02DC01CB01BC01CD010E94F2
:104100004900DC01CB019AA389A30FC089E190E0AB
:1041100098A38F8F8F8D98A10197F1F798A38F8F18
:1041200089A19AA101979AA389A389A19AA100972D
:1041300069F714C06BA17CA18DA19EA10E944900CA
:10414000DC01CB019AA389A389A19AA19E8F8D8FAF
:104150008D8D9E8D0197F1F79E8F8D8FFE01ED590C
:10416000FF4F8081982F917081E064E0492F0E9479
:10417000D918FE01ED59FF4F8081882F90E08270A1
:10418000907095958795982F81E065E0492F0E9462
:10419000D918FE01ED59FF4F8081882F90E084707F
:1041A00090709595879595958795982F81E066E015
:1041B000492F0E94D918FE01ED59FF4F8081882FA9
:1041C00090E08870907095958795959587959595D1
:1041D0008795982F81E067E0492F0E94D91880E0E9
:1041E00090E0A0E8BFE3898F9A8FAB8FBC8F698D79
:1041F0007A8D8B8D9C8D20E030E04AE753E40E945D
:104200001F02DC01CB018D8B9E8BAF8BB88F6D892C
:104210007E898F89988D20E030E040E85FE30E943E
:10422000790388232CF481E090E09C8B8B8B3FC03A
:104230006D897E898F89988D20E03FEF4FE757E4A5
:104240000E94190318164CF5698D7A8D8B8D9C8D03
:1042500020E030E040E251E40E941F02DC01CB018B
:10426000BC01CD010E944900DC01CB019C8B8B8BF2
:104270000FC089E190E09A8B898B89899A8901978F
:10428000F1F79A8B898B8B899C8901979C8B8B8BFF
:104290008B899C89009769F714C06D897E898F8905
:1042A000988D0E944900DC01CB019C8B8B8B8B8904
:1042B0009C89988B8F878F8598890197F1F7988BC8
:1042C0008F8781E063E040E00E94D91880E090E0B1
:1042D000A0E8BFE38B879C87AD87BE876B857C8515
:1042E0008D859E8520E030E04AE753E40E941F025E
:1042F000DC01CB018F839887A987BA876F81788586
:1043000089859A8520E030E040E85FE30E947903E8
:1043100088232CF481E090E09E838D833FC06F81E1
:10432000788589859A8520E03FEF4FE757E40E9422
:10433000190318164CF56B857C858D859E8520E0CC
:1043400030E040E251E40E941F02DC01CB01BC01DD
:10435000CD010E944900DC01CB019E838D830FC0FB
:1043600089E190E09C838B838B819C810197F1F79D
:104370009C838B838D819E8101979E838D838D810C
:104380009E81009769F714C06F81788589859A8529
:104390000E944900DC01CB019E838D838D819E812B
:1043A0009A83898389819A810197F1F79A83898316
:1043B000CD59DF4F0FB6F894DEBF0FBECDBFCF9102
:1043C000DF911F910F9108950F931F93DF93CF9368
:1043D000CDB7DEB7C356D0400FB6F894DEBF0FBEE0
:1043E000CDBFFE01ED59FF4F808381E062E041E0E7
:1043F0000E94D918FE01E15AFF4F80E090E0A0E84A
:10440000BFE380839183A283B3838E01055A1F4F3C
:10441000FE01E15AFF4F608171818281938120E02A
:1044200030E04AE753E40E941F02DC01CB01F801AF
:1044300080839183A283B383FE01E55AFF4F60819D
:1044400071818281938120E030E040E85FE30E9447
:104450007903882344F4FE01E75AFF4F81E090E09E
:104460009183808364C0FE01E55AFF4F60817181B2
:104470008281938120E03FEF4FE757E40E941903C8
:1044800018160CF043C0FE01E15AFF4F60817181A4
:104490008281938120E030E040E251E40E941F02DB
:1044A000DC01CB018E01075A1F4FBC01CD010E94D8
:1044B0004900DC01CB01F801918380831FC0FE011C
:1044C000E95AFF4F89E190E091838083FE01E95A28
:1044D000FF4F808191810197F1F7FE01E95AFF4F6B
:1044E00091838083DE01A75ABF4FFE01E75AFF4F39
:1044F00080819181019711969C938E93FE01E75ADA
:10450000FF4F808191810097D1F627C08E01075A15
:104510001F4FFE01E55AFF4F6081718182819381B7
:104520000E944900DC01CB01F80191838083DE0108
:10453000AB5ABF4FFE01E75AFF4F808191818D93A7
:104540009C93FE01EB5AFF4F808191810197F1F717
:10455000FE01EB5AFF4F9183808381E063E041E0ED
:104560000E94D918FE01EF5AFF4F80E090E0A0E8CA
:10457000BFE380839183A283B3838E01035B1F4FCC
:10458000FE01EF5AFF4F608171818281938120E0AB
:1045900030E04AE753E40E941F02DC01CB01F8013E
:1045A00080839183A283B383FE01E35BFF4F60812D
:1045B00071818281938120E030E040E85FE30E94D6
:1045C0007903882344F4FE01E55BFF4F81E090E02E
:1045D0009183808364C0FE01E35BFF4F6081718142
:1045E0008281938120E03FEF4FE757E40E94190357
:1045F00018160CF043C0FE01EF5AFF4F6081718125
:104600008281938120E030E040E251E40E941F0269
:10461000DC01CB018E01055B1F4FBC01CD010E9467
:104620004900DC01CB01F801918380831FC0FE01AA
:10463000E75BFF4F89E190E091838083FE01E75BB8
:10464000FF4F808191810197F1F7FE01E75BFF4FFA
:1046500091838083DE01A55BBF4FFE01E55BFF4FC9
:1046600080819181019711969C938E93FE01E55B69
:10467000FF4F808191810097D1F627C08E01055BA5
:104680001F4FFE01E35BFF4F608171818281938147
:104690000E944900DC01CB01F80191838083DE0197
:1046A000A95BBF4FFE01E55BFF4F808191818D9338
:1046B0009C93FE01E95BFF4F808191810197F1F7A7
:1046C000FE01E95BFF4F91838083FE01ED59FF4FAF
:1046D0008081882F90E08071907095958795959551
:1046E00087959595879595958795982F81E064E0B6
:1046F000492F0E94D918FE01ED59FF4F8081882F64
:1047000090E0807290709595879595958795959591
:1047100087959595879595958795982F81E065E084
:10472000492F0E94D918FE01ED59FF4F8081882F33
:1047300090E080749070082E892F000C881F990BD0
:10474000000C881F991F982F81E066E0492F0E9476
:10475000D918FE01ED59FF4F8081982F991F992795
:10476000991F81E067E0492F0E94D918FE01ED5B97
:10477000FF4F80E090E0A0E8BFE380839183A283B5
:10478000B3838E01015C1F4FFE01ED5BFF4F608123
:1047900071818281938120E030E04AE753E40E94F6
:1047A0001F02DC01CB01F80180839183A283B383D4
:1047B000FE01FF96608171818281938120E030E06B
:1047C00040E85FE30E94790388232CF481E090E0C5
:1047D0009EAF8DAF46C0FE01FF96608171818281E0
:1047E000938120E03FEF4FE757E40E94190318162A
:1047F00064F5FE01ED5BFF4F6081718182819381E1
:1048000020E030E040E251E40E941F02DC01CB01D5
:10481000BC01CD010E944900DC01CB019EAF8DAFF0
:104820000FC089E190E09CAF8BAF8BAD9CAD019741
:10483000F1F79CAF8BAF8DAD9EAD01979EAF8DAF65
:104840008DAD9EAD009769F716C0FE01FF966081A1
:104850007181828193810E944900DC01CB019EAF6E
:104860008DAF8DAD9EAD9AAF89AF89AD9AAD0197F1
:10487000F1F79AAF89AF81E063E040E00E94D91878
:1048800080E090E0A0E8BFE38DAB9EABAFABB8AFEC
:104890006DA97EA98FA998AD20E030E04AE753E4E6
:1048A0000E941F02DC01CB0189AB9AABABABBCAB66
:1048B00069A97AA98BA99CA920E030E040E85FE3D0
:1048C0000E94790388232CF481E090E098AB8FA7B5
:1048D0003FC069A97AA98BA99CA920E03FEF4FE7C7
:1048E00057E40E94190318164CF56DA97EA98FA9EB
:1048F00098AD20E030E040E251E40E941F02DC016C
:10490000CB01BC01CD010E944900DC01CB0198AB79
:104910008FA70FC089E190E09EA78DA78DA59EA5CA
:104920000197F1F79EA78DA78FA598A9019798AB3E
:104930008FA78FA598A9009769F714C069A97AA9CC
:104940008BA99CA90E944900DC01CB0198AB8FA7E1
:104950008FA598A99CA78BA78BA59CA50197F1F77C
:104960009CA78BA781E063E041E00E94D91880E01A
:1049700090E0A0E8BFE38FA398A7A9A7BAA76FA16B
:1049800078A589A59AA520E030E04AE753E40E9483
:104990001F02DC01CB018BA39CA3ADA3BEA36BA123
:1049A0007CA18DA19EA120E030E040E85FE30E9461
:1049B000790388232CF481E090E09AA389A33FC077
:1049C0006BA17CA18DA19EA120E03FEF4FE757E4B2
:1049D0000E94190318164CF56FA178A589A59AA510
:1049E00020E030E040E251E40E941F02DC01CB01F4
:1049F000BC01CD010E944900DC01CB019AA389A32F
:104A00000FC089E190E098A38F8F8F8D98A10197B7
:104A1000F1F798A38F8F89A19AA101979AA389A3EF
:104A200089A19AA1009769F714C06BA17CA18DA1FF
:104A30009EA10E944900DC01CB019AA389A389A110
:104A40009AA19E8F8D8F8D8D9E8D0197F1F79E8FF0
:104A50008D8FFE01ED59FF4F8081982F917081E07D
:104A600064E0492F0E94D918FE01ED59FF4F808163
:104A7000882F90E08270907095958795982F81E0AF
:104A800065E0492F0E94D918FE01ED59FF4F808142
:104A9000882F90E08470907095958795959587956F
:104AA000982F81E066E0492F0E94D918FE01ED5948
:104AB000FF4F8081882F90E0887090709595879542
:104AC0009595879595958795982F81E067E0492F73
:104AD0000E94D91880E090E0A0E8BFE3898F9A8F08
:104AE000AB8FBC8F698D7A8D8B8D9C8D20E030E0F3
:104AF0004AE753E40E941F02DC01CB018D8B9E8BA1
:104B0000AF8BB88F6D897E898F89988D20E030E0DA
:104B100040E85FE30E94790388232CF481E090E071
:104B20009C8B8B8B3FC06D897E898F89988D20E00F
:104B30003FEF4FE757E40E94190318164CF5698DB3
:104B40007A8D8B8D9C8D20E030E040E251E40E9414
:104B50001F02DC01CB01BC01CD010E944900DC0138
:104B6000CB019C8B8B8B0FC089E190E09A8B898B5A
:104B700089899A890197F1F79A8B898B8B899C890E
:104B800001979C8B8B8B8B899C89009769F714C04C
:104B90006D897E898F89988D0E944900DC01CB0147
:104BA0009C8B8B8B8B899C89988B8F878F85988921
:104BB0000197F1F7988B8F8781E063E040E00E94D6
:104BC000D91880E090E0A0E8BFE38B879C87AD8791
:104BD000BE876B857C858D859E8520E030E04AE729
:104BE00053E40E941F02DC01CB018F839887A987C1
:104BF000BA876F81788589859A8520E030E040E822
:104C00005FE30E94790388232CF481E090E09E8387
:104C10008D833FC06F81788589859A8520E03FEF3D
:104C20004FE757E40E94190318164CF56B857C85F5
:104C30008D859E8520E030E040E251E40E941F0215
:104C4000DC01CB01BC01CD010E944900DC01CB019C
:104C50009E838D830FC089E190E09C838B838B8141
:104C60009C810197F1F79C838B838D819E810197B5
:104C70009E838D838D819E81009769F714C06F811B
:104C8000788589859A850E944900DC01CB019E8345
:104C90008D838D819E819A83898389819A810197F1
:104CA000F1F79A838983CD59DF4F0FB6F894DEBFB1
:104CB0000FBECDBFCF91DF911F910F910895DF936C
:104CC000CF9300D00F92CDB7DEB79B838A83198232
:104CD0000EC08981282F30E08A819B81FC01E20F80
:104CE000F31F80810E94E42189818F5F89838981FC
:104CF000282F30E08A819B81FC01E20FF31F808125
:104D0000882339F70F900F900F90CF91DF9108957E
:104D1000DF93CF9300D000D00F92CDB7DEB78A8358
:104D20006B838A81282F30E03D832C838C819D8189
:104D300081309105C1F02C813D81223031052CF468
:104D40008C819D81009761F019C02C813D812230BA
:104D5000310569F08C819D818330910561F00EC031
:104D60008B8189830BC08B81805C898307C08B8199
:104D7000805F898303C08B81805B898389818068A0
:104D80000E94691D0F900F900F900F900F90CF9180
:104D9000DF910895DF93CF9300D000D0CDB7DEB779
:104DA00089836A835C834B8389816A810E94882618
:104DB0008B819C810E945F260F900F900F900F9027
:104DC000CF91DF910895DF93CF93CDB7DEB7629790
:104DD0000FB6F894DEBF0FBECDBF9A8B898B898941
:104DE0009A899E012F5F3F4FB9014AE050E00E942F
:104DF000CC29CE0101960E945F2662960FB6F894E8
:104E0000DEBF0FBECDBFCF91DF910895DF93CF936B
:104E1000CDB7DEB781E00E94691DCF91DF91089583
:104E20001F920F920FB60F9211242F933F934F931F
:104E30005F936F937F938F939F93AF93BF93EF9302
:104E4000FF93DF93CF93CDB7DEB7E0918601F0916A
:104E500087010995CF91DF91FF91EF91BF91AF91BC
:104E60009F918F917F916F915F914F913F912F9182
:104E70000F900FBE0F901F9018951F920F920FB6B4
:104E80000F9211242F933F934F935F936F937F93D0
:104E90008F939F93AF93BF93EF93FF93DF93CF9342
:104EA000CDB7DEB7E0918601F09187010995CF91EA
:104EB000DF91FF91EF91BF91AF919F918F917F9182
:104EC0006F915F914F913F912F910F900FBE0F9077
:104ED0001F901895DF93CF9300D0CDB7DEB79A839C
:104EE0008983AFE4B0E0EFE4F0E080818E7F8C93C3
:104EF000AFE4B0E0EFE4F0E080818D7F8C93AEE42E
:104F0000B0E0EEE4F0E08081877F8C93AEE4B0E027
:104F1000EEE4F0E080818F7E8C93E981FA818581D7
:104F20008430C1F4AEE4B0E0EEE4F0E0808188606B
:104F30008C93AAE4B0E0E981FA8182819381119691
:104F40009C938E93A9E5B0E0E9E5F0E08081806173
:104F50008C930CC0E981FA818581882339F4A9E515
:104F6000B0E0E9E5F0E0808184608C93AFE4B0E0EC
:104F7000EFE4F0E0808188608C93AFE4B0E0EFE490
:104F8000F0E0808184608C93ACE4B0E0E981FA8148
:104F90008081918111969C938E93AEE4B0E0EEE413
:104FA000F0E08081982F9870E981FA818481877F71
:104FB000892B8C930F900F90CF91DF910895DF9301
:104FC000CF93CDB7DEB71092870110928601EFE440
:104FD000F0E01082EEE4F0E01082ECE4F0E0118208
:104FE0001082EAE4F0E011821082A9E5B0E0E9E580
:104FF000F0E080818C738C93CF91DF910895DF93E3
:10500000CF9300D0CDB7DEB79A83898389819A8107
:1050100090938701809386010F900F90CF91DF913D
:105020000895DF93CF9300D000D0CDB7DEB79C8337
:105030008B831A821982EB81FC8183819481A58103
:10504000B681880F991FAA1FBB1F880F991FAA1F1F
:10505000BB1F880F991FAA1FBB1F9C01AD0180E4D5
:1050600092E4AFE0B0E0BC01CD010E947329DA0107
:10507000C90101979A838983EBE2F0E082E08083A3
:10508000EAE2F0E088E18083A0E4B0E0EB81FC811B
:105090008081882F90E0880F991F282F2068EB814E
:1050A000FC818281882F90E0880F991F880F991FBB
:1050B000880F991F282BEB81FC818181882F90E03C
:1050C00082959295907F9827807F9827822B8C934A
:1050D000E0E4F0E089819A81892F99278083E9E2D1
:1050E000F0E0898180830F900F900F900F90CF9107
:1050F000DF910895DF93CF930F92CDB7DEB7898309
:10510000EBE2F0E08081882F90E080729070009751
:10511000B9F3ECE2F0E0898180830F90CF91DF91C9
:105120000895DF93CF93CDB7DEB7EBE2F0E0808157
:105130008823DCF7ECE2F0E08081CF91DF910895E5
:10514000DF93CF9300D000D0CDB7DEB79C838B83A5
:105150001A8219820FC029813A818B819C81FC01BE
:10516000E20FF31F80810E947A2889819A8101963B
:105170009A83898329813A818B819C81FC01E20F8A
:10518000F31F8081882339F70F900F900F900F90B5
:10519000CF91DF910895DF93CF9300D000D0CDB7AA
:1051A000DEB79C838B831A8219820FC029813A81D2
:1051B0008B819C81FC01E20FF31F80810E947A2881
:1051C00089819A8101969A83898329813A818B8189
:1051D0009C81FC01E20FF31F80818A3239F70F9026
:1051E0000F900F900F90CF91DF9108950F931F9321
:1051F000DF93CF9300D00F92CDB7DEB79B838A8326
:1052000019828981282F30E08A819B818C01020FCD
:10521000131F0E949128F80180830FC089818F5F3E
:1052200089838981282F30E08A819B818C01020F3C
:10523000131F0E949128F80180838981282F30E074
:105240008A819B81FC01E20FF31F8081833231F759
:105250008981282F30E08A819B81FC01E20FF31FB6
:1052600010820F900F900F90CF91DF911F910F91AF
:1052700008950F931F93DF93CF9300D00F92CDB774
:10528000DEB79B838A8319828981282F30E08A8147
:105290009B818C01020F131F0E949128F8018083CB
:1052A0000FC089818F5F89838981282F30E08A81AF
:1052B0009B818C01020F131F0E949128F8018083AB
:1052C0008981282F30E08A819B81FC01E20FF31F46
:1052D00080818A3231F70F900F900F90CF91DF913C
:1052E0001F910F910895A1E21A2EAA1BBB1BFD016D
:1052F0000DC0AA1FBB1FEE1FFF1FA217B307E407B5
:10530000F50720F0A21BB30BE40BF50B661F771F0C
:10531000881F991F1A9469F76095709580959095EC
:105320009B01AC01BD01CF0108952F923F924F9296
:105330005F926F927F928F929F92AF92BF92CF9225
:10534000DF92EF92FF920F931F93CF93DF93CDB72E
:10535000DEB7CA1BDB0B0FB6F894DEBF0FBECDBFA6
:1053600009942A88398848885F846E847D848C8477
:105370009B84AA84B984C884DF80EE80FD800C8180
:105380001B81AA81B981CE0FD11D0FB6F894DEBF63
:105390000FBECDBFED010895FB019F01E89442309F
:1053A000C4F04532B4F44A3029F497FB1EF49095CA
:1053B00081959F4F642F77270E94FD29805D8A3356
:1053C0000CF0895D8193CB010097A1F716F45DE2A3
:1053D00051931082C9010C94ED29DC01FC01672F67
:1053E00071917723E1F7329704C07C916D937083BC
:1053F0006291AE17BF07C8F30895AA1BBB1B51E10A
:1054000007C0AA1FBB1FA617B70710F0A61BB70B34
:10541000881F991F5A95A9F780959095BC01CD01D9
:065420000895F894FFCF8F
:10542600706C7320656E74657220706173733A00D8
:10543600706C732072652D656E7465722074686574
:105446000073616D6520706173733A0053656E6415
:10545600696E672E2E2E0053656E74002B203A203F
:105466004F70656E20446F6F72002D203A2043689E
:10547600616E6765205061737300706C7320656E92
:1054860074657220506173733A2000556E6C6F63B9
:105496006B696E6720446F6F7200484F4C44494EEB
:1054A600472E2E2E00446F6F72206973206C6F6337
:1054B6006B696E670057726F6E67004552524F52A6
:1054C60000456E746572204F4C4420506173733AE8
:1054D600004E6F74204D617463686564004E4557D5
:1054E60020504153532053415645440057524F4E86
:1054F600470031204D687A20666F722070726F7493
:10550600657300555345204F4E2F43204153204588
:105516004E5452004D61746368656400456E74654F
:105526007264202B00456E74657264202D000000A5
:105536000000000000000000127A0404030000804E
:04554600250000003C
:00000001FF
